:1000000021C039C038C0CDC036C035C034C033C0BF
:1000100032C031C0010200000000000000000102F7
:100020000408102020041008020202020202020248
:10003000020200000000360000000000380000004E
:100040000000370011241FBECFE9CDBF10E0A0E6AD
:10005000B0E0EEEEF3E002C005900D92A436B107D9
:10006000D9F720E0A4E6B0E001C01D92A737B2079F
:10007000E1F7B2D1BAC1C4CF61E082E01AD161E048
:1000800083E017D161E081E014D161E080E011D11B
:1000900062E084E00ED160E082E047D160E083E07E
:1000A00044D160E081E041D160E080E03ED1E6E60D
:1000B000F0E082E090E09183808383E090E093839E
:1000C000828381E090E0958384831782168208956D
:1000D00084E05AD1892BC1F461E081E026D18FE020
:1000E00090E0A9D060E081E020D18BE490E0A3D043
:1000F00061E080E01AD18FE090E09DD060E080E088
:1001000014D18BE490E097D080916000882371F047
:10011000E0916400F0916500EE0FFF1FEA59FF4F78
:1001200061E0808102D11092600038C0809161004E
:10013000909162008835924059F4E0916400F0910A
:100140006500EE0FFF1FEA59FF4F60E08081EDD0A0
:1001500080916100909162000097D9F480916400D1
:10016000909165000196823091052CF49093650082
:100170008093640004C0109265001092640088E5CA
:1001800092E0909362008093610081E08093600030
:1001900005C0019790936200809361008FE090E02A
:1001A0004AC01F920F920FB60F9211242F933F93C4
:1001B0008F939F93AF93BF9380916F009091700046
:1001C000A0917100B091720030916E0026E6230F6D
:1001D0002D3720F40196A11DB11D05C029EE230F76
:1001E0000296A11DB11D20936E0080936F00909325
:1001F0007000A0937100B093720080917300909191
:100200007400A0917500B09176000196A11DB11DFA
:100210008093730090937400A0937500B093760060
:10022000BF91AF919F918F913F912F910F900FBEF2
:100230000F901F901895CF93DF9300D0CDB7DD2797
:100240001A82198247E857E029813A81281739072D
:1002500050F4FA013197F1F729813A812F5F3F4F2E
:100260003A832983F1CFCE5FCDBFDF91CF9108953F
:1002700078948FB582608FBD8FB581608FBD83B755
:10028000826083BF83B7816083BF89B7826089BF83
:10029000329A319A309A379A0895813019F0823023
:1002A00021F008958FB58F7702C08FB58F7D8FBDF8
:1002B0000895CF93DF9390E0FC01E25EFF4F24911D
:1002C000FC01E85DFF4F8491882361F190E0880F85
:1002D000991FFC01E25CFF4FC591D491FC01E85CE1
:1002E000FF4FA591B491611109C09FB7F89488811F
:1002F000209582238883EC912E230BC0623061F419
:100300009FB7F8943881822F809583238883EC915E
:100310002E2B2C939FBF06C08FB7F894E8812E2B0D
:1003200028838FBFDF91CF9108951F93CF93DF93E1
:10033000282F30E0F901EC5EFF4F8491F901E25E75
:10034000FF4FD491F901E85DFF4FC491CC23C1F078
:10035000162F8111A2DFEC2FF0E0EE0FFF1FE85CFB
:10036000FF4FA591B4918FB7F894111105C09C91DE
:10037000ED2FE095E92302C0EC91ED2BEC938FBFBC
:10038000DF91CF911F910895CF93DF93282F30E015
:10039000F901EC5EFF4F8491F901E25EFF4FD491C9
:1003A000F901E85DFF4FC491CC2389F0811175DF1D
:1003B000EC2FF0E0EE0FFF1FEE5CFF4FA591B49124
:1003C000EC91ED2381E090E021F480E002C080E038
:1003D00090E0DF91CF9108954BDF4EDEC0E0D0E09A
:0E03E00077DE2097E9F30CDEFBCFF894FFCF19
:0403EE0001580200B0
:00000001FF
